:100000000C9462000C948A000C948A000C948A0070
:100010000C948A000C948A000C948A000C948A0038
:100020000C948A000C948A000C948A000C948A0028
:100030000C948A000C948A000C948A000C948A0018
:100040000C94480B0C948A000C948A000C948A003F
:100050000C948A000C948A000C948A000C948A00F8
:100060000C9486090C948A000000000024002700EC
:100070002A0000000000250028002B0000000000DE
:1000800023002600290004040404040404040202DA
:100090000202020203030303030301020408102007
:1000A0004080010204081020010204081020000012
:1000B0000007000201000003040600000000000029
:1000C00000007C0811241FBECFEFD4E0DEBFCDBFFF
:1000D00013E0A0E0B1E0ECEEFAE102C005900D9271
:1000E000A835B107D9F714E0A8E5B3E001C01D9227
:1000F000AA33B107E1F710E0C4ECD0E004C02297C6
:10010000FE010E94700DC23CD107C9F70E94380D54
:100110000C94740D0C940000813011F45C9A01C0B1
:100120005C985D985B9A5B9820E030E040E850E096
:1001300070E0CA01022E02C0959587950A94E2F7F5
:1001400086239723892B11F05C9A01C05C985B9AF7
:100150005B982F5F3F4F2830310559F75D9A08951E
:10016000682F6F71605880E00E948C0008951F9383
:10017000182F80935803609359036F70606B80E071
:100180000E948C00612F70E084E0759567958A95D8
:10019000E1F76770606180E00E948C001F7080E072
:1001A000612F0E948C001F910895BF92CF92DF9221
:1001B000EF92FF920F931F93CF93DF93E82E59E0B6
:1001C000B52EB81ACB2CDD24960143E0220F331F45
:1001D0004A95E1F7862F90E0281739070CF4622F33
:1001E000C62FD0E021503040C9018C1B9D0B68E028
:1001F00070E00E945B0DF62E10E00BC0612F6E0DBB
:1002000080915A030E94B70081E060E00E948C0058
:100210001F5F1F1598F396012F19310993E0220FE4
:10022000331F9A95E1F72C1B3D0B1FEF40E002C0F6
:10023000110F4F5F842F90E082179307CCF36F2D3F
:100240006E0D80915A030E94B70081E0612F0E94D9
:100250008C000F2D0F5F1E2D1F5F1F0D0BC0809197
:100260005A03612F0E94B70081E06FEF0E948C005B
:100270000F5F1F5F0B1598F3DF91CF911F910F91C7
:10028000FF90EF90DF90CF90BF900895CF93DF93D2
:10029000C0E0D0E081E060E00E948C00219683E025
:1002A000C036D807B9F7DF91CF9108950F931F9308
:1002B000CF93DF93182F81E060E00E948C00812FA4
:1002C000992787FD90958097EC01CC0FDD1FCC0F0F
:1002D000DD1FC80FD91FC95ADE4F85E01802800103
:1002E000112404541F4F81E069910E948C00C017B3
:1002F000D107C9F7DF91CF911F910F910895BF9258
:10030000CF92DF92EF92FF920F931F93CF93DF93E1
:100310008C0127E28031920710F00FE017E2BB2436
:1003200070E1E72E77E2F72ECC24C7016AE070E097
:100330000E94470DEB017B01C8010E94470DD62E9C
:10034000662319F0BB24B39405C0BB2019F433E035
:10035000C31619F48D2D805D01C080E20E94560104
:10036000C39484E0C81669F08D2D90E09C012C9F09
:10037000C0012D9F900D3C9F900D1124081B190B5F
:10038000D4CFDF91CF911F910F91FF90EF90DF902D
:10039000CF90BF900895CF93DF93EC0103C02196D7
:1003A0000E94560188818823D1F7DF91CF9108956B
:1003B00086E061E00E94910C80E062EE0E948C0079
:1003C00080E06DE30E948C0080E061E00E948C0080
:1003D00080E064EA0E948C0080E06FE20E948C0062
:1003E00080E060EC0E948C0080E060EC0E948C0059
:1003F00080E06FEA0E948C0008950F931F93809114
:100400005D0390915E03E3E0880F991FEA95E1F7A1
:100410008450914F9093600380935F0390936103A6
:100420008093620364E670E080E090E00E949C0BA1
:1004300006EB13E0C80161E670E00E944208C801C3
:10044000609161030E94C408C801609162030E9428
:10045000C408C8016EEC0E94C408C80160E00E9494
:10046000C408C8010E9407091F910F9108957F9247
:100470008F929F92AF92BF92CF92DF92EF92FF92B4
:100480000F931F93CF93DF9382E460E00E94B70045
:1004900080916303882321F480E091E00E94CB01E6
:1004A00080916303813021F484E091E00E94CB01CC
:1004B00080916303823021F488E091E00E94CB01B7
:1004C00080916303833021F48CE091E00E94CB01A2
:1004D00080916303843009F03FC080E191E00E9485
:1004E000CB013AC0822F8F5F80936303853010F079
:1004F0001092630382E460E00E94B700809163037E
:10050000882321F480E091E00E94CB018091630375
:10051000813021F484E091E00E94CB01809163035B
:10052000823021F488E091E00E94CB018091630346
:10053000833021F48CE091E00E94CB018091630331
:10054000843021F480E191E00E94CB0160E273E00D
:1005500080E090E00E949C0B80E10E94E50C2091DD
:100560006303892B09F4BECF223009F42CC2233057
:1005700030F4222359F0213009F0BBC453C1233099
:1005800009F48DC2243009F0B4C487C31092650306
:1005900010926403FF24009164031091650384E1C9
:1005A0000E94300C01501C4F081B190B109365035F
:1005B0000093640362E070E080E090E00E949C0B96
:1005C000F3942AE0F21639F780915D0390915E036F
:1005D0008854934030F486E495E090935E038093D2
:1005E0005D0380915D0390915E038754954030F0E8
:1005F00088E493E090935E0380935D0381E10E9421
:10060000E50C892B31F08EE00E94E50C892B09F076
:100610006BC480915B0390915C03019690935C03A3
:1006200080935B0381E10E94E50C892B79F4809132
:100630005B0390915C030F9748F480915D03909168
:100640005E03019690935E0380935D0381E10E94B7
:10065000E50C892B79F480915B0390915C030F97F3
:1006600048F080915D0390915E030A9690935E033B
:1006700080935D038EE00E94E50C892B79F48091D4
:100680005B0390915C030F9748F480915D03909118
:100690005E03019790935E0380935D038EE00E945A
:1006A000E50C892B79F480915B0390915C030F97A3
:1006B00048F080915D0390915E030A9790935E03EA
:1006C00080935D030E94FD0180E060E00E94B7001E
:1006D00084E191E00E94CB0180915D0390915E03E3
:1006E0000E947F018BE191E00E94CB0180E061E0FC
:1006F0000E94B7008DE191E00E94CB0183E261E0AE
:100700000E94B700409164035091650380916D038E
:10071000282F30E087E290E0BC01269FC001279F90
:10072000900D369F900D11248417950708F04DC049
:1007300009ED1FEF209FC001219F900D309F900D6C
:100740001124840F951F96958795969587950E94FD
:100750007F0180916D0390E0809F9001819F300D1B
:10076000909F300D11248091640390916503280FB0
:10077000391FC901880F991F880F991F60916E0357
:1007800070E0660F771F820F931F0E94470D162F90
:10079000603608F01FE500E009C0802F64E00E9489
:1007A000B70081E06FEF0E948C000F5F0117A8F384
:1007B000012F802F64E00E94B70081E060E00E947A
:1007C0008C000F5F0036A8F310C08AE291E00E940F
:1007D000CB0100E0802F64E00E94B70081E060E080
:1007E0000E948C000F5F0036A9F78FE00E94E50C95
:1007F000892B09F072C380E394E060E070E04091DF
:1008000062030E943C0B80E394E061E070E0409161
:1008100061030E943C0B68EB7BE080E090E00E946B
:100820009C0B5BC3EE24C6E6D3E0A7E28A2E912C94
:10083000F4E0AF2EB12CE9EDCE2EEFEFDE2E75E019
:10084000772ED0935E03C0935D030E94FD0180E08C
:1008500060E00E94B70084E191E00E94CB018091AA
:100860005D0390915E030E947F018BE191E00E9405
:10087000CB0181E10E94E50C892B31F464EF71E03A
:1008800080E090E00E949C0B10926503109264033C
:10089000FF24009164031091650384E10E94300CF1
:1008A00001501C4F081B190B109365030093640340
:1008B00062E070E080E090E00E949C0BF3947AE0AC
:1008C000F71639F7609164037091650380916D03A9
:1008D000482F50E0489DC001499D900D589D900DB6
:1008E000112486179707F8F44C9D90014D9D300D0B
:1008F0005C9D300D1124260F371FC90163E0880F5E
:10090000991F6A95E1F760916E03679DB00111240C
:10091000821B930B0E94470D6C5F7F4F70936B039C
:1009200060936A0304C0B0926B03A0926A03E092E2
:100930005A0381E060916A030E94D500E394E0923B
:100940005A0381E060E00E94D50080E10E94E50C3E
:10095000892B99F51092630380E394E060E070E0E6
:100960000E94350B8093620380E394E061E070E0C5
:100970000E94350B80936103209162032695269592
:10098000269530E02F5D314090E055E0880F991FAB
:100990005A95E1F7280F391F30935E0320935D03CA
:1009A0000E94FD0100E000935A0381E060E00E9494
:1009B000D5000F5F0036B9F79CC2259680E6E81691
:1009C00009F03FCF96C21092650310926403109213
:1009D000670310926603C0E0D0E00FEF13E0C65843
:1009E000DC4FD0935E03C0935D03CA57D340C83138
:1009F000D10511F4CAE5D0E00E94FD0180E060E07D
:100A00000E94B70084E191E00E94CB0180915D03D8
:100A100090915E030E947F018BE191E00E94CB01E7
:100A200080E061E00E94B70064E170E080E090E067
:100A30000E949C0B8DE191E00E94CB0184E10E9419
:100A4000300C9801281B390B309365032093640305
:100A500083E261E00E94B700809164039091650396
:100A60000E947F01209164033091650380916603A9
:100A7000909167038217930730F4309367032093B4
:100A80006603C0936C03219631E0CB3CD30708F496
:100A9000A6CF80916C0390E086589C4FF5C01092D1
:100AA00067031092660386EF97E290936903809341
:100AB0006803C8E4D3E0D0935E03C0935D030E9453
:100AC000FD0180E060E00E94B70084E191E00E94B7
:100AD000CB0180915D0390915E030E947F018BE1C9
:100AE00091E00E94CB0180E061E00E94B7008DE1BF
:100AF00091E00E94CB011092650310926403FF24E1
:100B0000009164031091650384E10E94300C015050
:100B10001C4F081B190B109365030093640362E0DC
:100B200070E080E090E00E949C0BF3946AE0F6167F
:100B300039F783E261E00E94B7008FE291E00E9402
:100B4000CB0183E261E00E94B70080916403909141
:100B500065030E947F0120916403309165038091B9
:100B60006603909167038217930720F4309367031D
:100B700020936603809168039091690328173907D1
:100B800020F43093690320936803219675E0C534FF
:100B9000D70709F090CF2091680330916903C9010C
:100BA00068E270E00E94470D462F60936D038091CC
:100BB000660390916703821B930B68E270E00E94CA
:100BC000470D60936E0380E394E062E070E00E9462
:100BD0003C0B80E394E063E070E040916E030E9480
:100BE0003C0B80E063E00E94B70084E391E00E9448
:100BF000CB0183E263E00E94B70080916D0390E037
:100C00000E947F0180E064E00E94B7008FE391E0E2
:100C10000E94CB0183E264E00E94B70080916E03E2
:100C200090E00E947F0160ED77E080E090E00E941C
:100C30009C0B80E394E060E070E00E94350B8093B1
:100C4000620380E394E061E070E00E94350B8093E2
:100C500061032091620326952695269530E02F5D4D
:100C6000314090E045E0880F991F4A95E1F7280F41
:100C7000391F30935E0320935D03285433402F5F68
:100C8000314030F088E894E090935E0380935D03F8
:100C90000E94FD01109263032CC110926503109213
:100CA0006403FF24009164031091650384E10E94B2
:100CB000300C01501C4F081B190B10936503009357
:100CC000640362E070E080E090E00E949C0BF3948B
:100CD0002AE0F21639F781E10E94E50C892B29F40C
:100CE00080916F038F5F80936F0380916F038031DA
:100CF00011F410926F038EE00E94E50C892B29F409
:100D000080916F03815080936F0380916F038131D5
:100D100018F08FE080936F03E0916F03F0E0E95CDF
:100D2000FC4F80812AE0829FC001112490935E03D2
:100D300080935D030E94FD0180E060E00E94B700A7
:100D400084E191E00E94CB0180915D0390915E036C
:100D50000E947F018BE191E00E94CB0180E061E085
:100D60000E94B7008DE191E00E94CB0183E261E037
:100D70000E94B700409164035091650380916D0318
:100D8000282F30E087E290E0BC01269FC001279F1A
:100D9000900D369F900D11248417950708F04DC0D3
:100DA00009ED1FEF209FC001219F900D309F900DF6
:100DB0001124840F951F96958795969587950E9487
:100DC0007F0180916D0390E0809F9001819F300DA5
:100DD000909F300D11248091640390916503280F3A
:100DE000391FC901880F991F880F991F60916E03E1
:100DF00070E0660F771F820F931F0E94470D162F1A
:100E0000603608F01FE500E009C0802F64E00E9412
:100E1000B70081E06FEF0E948C000F5F0117A8F30D
:100E2000012F802F64E00E94B70081E060E00E9403
:100E30008C000F5F0036A8F310C08AE291E00E9498
:100E4000CB0100E0802F64E00E94B70081E060E009
:100E50000E948C000F5F0036A9F78FE00E94E50C1E
:100E6000892B71F480E394E064E070E040916F03BB
:100E70000E943C0B68EB7BE080E090E00E949C0BC2
:100E800080E10E94E50C892B41F51092630380E319
:100E900094E060E070E00E94350B8093620380E391
:100EA00094E061E070E00E94350B80936103209133
:100EB000620326952695269530E02F5D314090E01F
:100EC000F5E0880F991FFA95E1F7280F391F309345
:100ED0005E0320935D030E94FD0168EC70E080E0FA
:100EE00090E00E949C0B05C010925C0310925B0383
:100EF000EBCBDF91CF911F910F91FF90EF90DF909F
:100F0000CF90BF90AF909F908F907F9008950F9358
:100F10001F9386EB93E00E940B0985E061E00E943D
:100F2000520C86E061E00E94520C84E061E00E9475
:100F3000520C83E061E00E94520C86E060E00E9467
:100F4000910C85E061E00E94910C83E060E00E94DA
:100F5000910C84E060E00E94910C81E160E00E94CD
:100F6000520C81E161E00E94910C8EE060E00E94F1
:100F7000520C8EE061E00E94910C8FE060E00E94D4
:100F8000520C8FE061E00E94910C80E160E00E94D1
:100F9000520C80E161E00E94910C80E394E060E0FB
:100FA00070E00E94350B8093620380E394E061E07F
:100FB00070E00E94350B8093610380E394E062E06F
:100FC00070E00E94350B80936D0380E394E063E052
:100FD00070E00E94350B80936E0380E394E064E040
:100FE00070E00E94350B80936F038091610390E065
:100FF00035E0880F991F3A95E1F720916203269515
:1010000026952695820F911D8F5D914090935E03EA
:1010100080935D03885493408F5F914030F088E85F
:1010200094E090935E0380935D030E94FD010E9413
:10103000D8010E94460180E066EA0E948C008091FF
:1010400055010E94B00010E000E0802F612F0E9447
:10105000B7008CE491E00E94CB0168EC70E080E086
:1010600090E00E949C0B1F5F0A5F183071F764EFDD
:1010700071E080E090E00E949C0B0E9446011F916D
:101080000F91089581E08093B503609392031092CD
:10109000B3031092B40308952091910330E080913E
:1010A0009003281B3109C901089540919003809154
:1010B0009103481718F02FEF3FEF0AC0E42FF0E03C
:1010C000E059FC4F8081282F30E04F5F4093900320
:1010D000C9010895E091900380919103E81718F0F9
:1010E000EFEFFFEF06C0F0E0E059FC4F8081E82F02
:1010F000F0E0CF01089508951092B9031092B8035B
:1011000088EE93E0A0E0B0E08093BA039093BB0335
:10111000A093BC03B093BD038BE493E09093B7031B
:101120008093B6030895CF92DF92EF92FF920F93D0
:101130001F93CF93DF937C016B018A018091B503EC
:101140008823A1F0C0E0D0E00DC0D701ED91FC9163
:10115000D601AC0FBD1F0190F081E02DC7016C914D
:1011600009952196C017D10780F304C0CB01642FE5
:101170000E946B09C801DF91CF911F910F91FF90E1
:10118000EF90DF90CF900895DF93CF930F92CDB77C
:10119000DEB7FC0169838091B5038823C9F0809193
:1011A000B403803238F081E090E09383828320E0C2
:1011B00030E015C08091B303E82FF0E0ED56FC4F0E
:1011C000998190838F5F8093B3038093B40305C0AC
:1011D000CE01019661E00E946B0921E030E0C90177
:1011E0000F90CF91DF9108950F93062F8091920376
:1011F00063E973E04091B40321E00E941609109264
:10120000B3031092B4031092B5030F91089561E0F7
:101210000E94F40808951092900310929103109286
:10122000B3031092B4030E94170B08950F931F93FA
:10123000582F122F413210F081E04AC08091C20332
:101240008823E1F782E08093C2030093C4038FEF09
:1012500080932F041092EA034093EB03AAECB3E0CF
:10126000FB0102C081918D938E2F861B8417D0F3D2
:101270001092C3038091C303550F852B8093C30342
:101280008091C503813041F41092C5038091C3035E
:101290008093BB0085EC01C085EE8093BC001123D8
:1012A00021F08091C2038230E1F380912F048F3FBF
:1012B00011F480E00DC080912F04803211F482E09F
:1012C00007C080912F04803311F084E001C083E0D7
:1012D0001F910F910895482F613210F081E0089519
:1012E0008091C203843011F082E0089560930D0470
:1012F000ACEEB3E0842F9C01F90102C081918D9383
:101300008E2F841B8617D0F380E008951F920F92D2
:101310000FB60F9211242F933F934F935F936F93C8
:101320007F938F939F93AF93BF93EF93FF9380919E
:10133000B90090E0887F90708036910509F4F2C082
:1013400081369105CCF58832910509F47BC089324C
:101350009105B4F48031910509F46FC08131910594
:101360003CF4009709F447C1089709F04FC165C0E4
:101370008831910509F466C0809709F047C182C0A1
:101380008034910509F4A4C08134910544F480337C
:10139000910509F482C0C89709F038C189C0803529
:1013A000910509F489C08835910509F496C08834FF
:1013B000910509F02BC1AEC08839910509F413C11C
:1013C00089399105ECF48837910509F4ABC0893768
:1013D00091054CF48836910509F4A4C08037910535
:1013E00009F014C19FC08838910509F4FCC0803908
:1013F000910509F49DC08038910509F007C198C096
:10140000803B910509F4C6C0813B91054CF4803ABC
:10141000910509F49FC0883A910509F0F7C0BAC058
:10142000803C910509F4E3C0883C910509F4DFC0D4
:10143000883B910509F0EAC0C2C08091C303809344
:10144000BB00CFC09091EA038091EB03981768F43A
:101450009091EA03E92FF0E0E653FC4F80818093FE
:10146000BB009F5F9093EA03BCC08091C4038823B4
:1014700009F44BC085ED8093BC008091BC0084FDD5
:10148000FCCFC2C080E280932F0485ED8093BC0026
:101490008091BC0084FDFCCFB7C080E380932F0413
:1014A00085ED8093BC008091BC0084FDFCCFACC076
:1014B00088E380932F049BC08091EA039091BB0046
:1014C000E82FF0E0E653FC4F90838F5F8093EA03B0
:1014D0009091EA038091EB0382C08091EA0390919E
:1014E000BB00E82FF0E0E653FC4F90838F5F8093C2
:1014F000EA038091C403882341F085ED8093BC000A
:101500008091BC0084FDFCCF7FC081E08093C50347
:1015100084EA6EC085ED8093BC008091BC0084FDA0
:10152000FCCF72C083E08093C20310922E0459C096
:1015300080912E04803208F056C080912E04909144
:10154000BB00E82FF0E0E25FFB4F90838F5F80935A
:101550002E0447C080912E04803230F4E0912E0496
:10156000F0E0E25FFB4F108285ED8093BC0080913C
:10157000BC0084FDFCCF1092C20360912E04E09168
:10158000C803F091C9038EE094E070E009951092D1
:101590002E042DC084E08093C20310920C0410929C
:1015A0000D04E091C603F091C703099580910D04E5
:1015B000882329F481E080930D041092EC0390912C
:1015C0000C04E92FF0E0E451FC4F80818093BB00D4
:1015D0009F5F90930C0490910C0480910D049817D8
:1015E00010F485EC01C085E88093BC000FC085EC49
:1015F0008093BC0009C010922F0485ED8093BC003D
:101600008091BC0084FDFCCF1092C203FF91EF914A
:10161000BF91AF919F918F917F916F915F914F910A
:101620003F912F910F900FBE0F901F901895109221
:10163000C20381E08093C4031092C50382E161E09C
:101640000E94910C83E161E00E94910CE9EBF0E0D3
:1016500080818E7F808380818D7F808380E28093F4
:10166000B80085E48093BC000895F999FECF72BD5F
:1016700061BDF89A80B50895F999FECF1FBA72BD81
:1016800061BD40BD0FB6F894FA9AF99A0FBE08955D
:101690001F920F920FB60F9211242F933F934F93E7
:1016A0005F936F937F938F939F93AF93BF9320919B
:1016B00035043091360440913704509138047091CC
:1016C0003904DA01C9010296A11DB11D672F6A5FB5
:1016D0006D3730F06D57DA01C9010396A11DB11DB8
:1016E000609339048093350490933604A0933704B3
:1016F000B09338048091310490913204A091330466
:10170000B09134040196A11DB11D809331049093D2
:101710003204A0933304B0933404BF91AF919F91EE
:101720008F917F916F915F914F913F912F910F908A
:101730000FBE0F901F9018959B01AC017FB7F894D6
:101740008091310490913204A0913304B09134041B
:1017500066B5A89B05C06F3F19F00196A11DB11D8C
:101760007FBFBA2FA92F982F8827860F911DA11D03
:10177000B11D63E0880F991FAA1FBB1F6A95D1F79F
:10178000BC012DC0FFB7F8948091310490913204D0
:10179000A0913304B0913404E6B5A89B05C0EF3F97
:1017A00019F00196A11DB11DFFBFBA2FA92F982FC7
:1017B00088278E0F911DA11DB11DE3E0880F991F91
:1017C000AA1FBB1FEA95D1F7861B970B885E934033
:1017D000C8F2215030404040504068517C4F2115A4
:1017E00031054105510571F60895789484B58260FC
:1017F00084BD84B5816084BD85B5826085BD85B5B5
:10180000816085BDEEE6F0E0808181608083E1E863
:10181000F0E010828081826080838081816080839B
:10182000E0E8F0E0808181608083E1EBF0E080819E
:1018300084608083E0EBF0E0808181608083EAE770
:10184000F0E08081846080838081826080838081F9
:10185000816080838081806880831092C1000895B8
:10186000982F8E3008F09E50977080915601829587
:10187000880F880F807C892B80937C0080917A0070
:10188000806480937A0080917A0086FDFCCF20915D
:10189000780040917900942F80E030E0282B392B9C
:1018A000C9010895CF93DF93482F50E0CA018656AF
:1018B0009F4FFC0134914A575F4FFA01849188236E
:1018C00069F190E0880F991FFC01E859FF4FA5913D
:1018D000B491FC01EE58FF4FC591D491662351F4A9
:1018E0002FB7F8948C91932F909589238C938881AE
:1018F00089230BC0623061F42FB7F8948C91932F39
:10190000909589238C938881832B88832FBF06C071
:101910009FB7F8948C91832B8C939FBFDF91CF91CD
:101920000895482F50E0CA0182559F4FFC01249131
:10193000CA0186569F4FFC0194914A575F4FFA01A6
:101940003491332309F440C0222351F1233071F044
:10195000243028F42130A1F0223011F514C02630B3
:10196000B1F02730C1F02430D9F404C08091800058
:101970008F7703C0809180008F7D8093800010C09E
:1019800084B58F7702C084B58F7D84BD09C08091F6
:10199000B0008F7703C08091B0008F7D8093B0003E
:1019A000E32FF0E0EE0FFF1FEE58FF4FA591B4912B
:1019B0002FB7F894662321F48C919095892302C067
:1019C0008C91892B8C932FBF0895682F70E0CB01E9
:1019D00082559F4FFC012491CB0186569F4FFC01FD
:1019E00044916A577F4FFB019491992319F420E0A9
:1019F00030E03CC0222351F1233071F0243028F430
:101A00002130A1F0223011F514C02630B1F027307A
:101A1000C1F02430D9F404C0809180008F7703C0D6
:101A2000809180008F7D8093800010C084B58F7777
:101A300002C084B58F7D84BD09C08091B0008F77CE
:101A400003C08091B0008F7D8093B000892F90E01B
:101A5000880F991F84589F4FFC01A591B4918C91D8
:101A600020E030E0842311F021E030E0C901089546
:101A7000CF93DF930E94F50B0E948707C0E0D0E070
:101A80000E9437022097E1F30E940000F9CFAA1BC1
:101A9000BB1B51E107C0AA1FBB1FA617B70710F059
:101AA000A61BB70B881F991F5A95A9F7809590958B
:101AB000BC01CD01089597FB092E07260AD077FDBA
:101AC00004D0E5DF06D000201AF4709561957F4FB1
:101AD0000895F6F7909581959F4F0895EE0FFF1F9B
:0C1AE0000590F491E02D0994F894FFCFDC
:101AEC00524356005350430053434E00434C420064
:101AFC00434E4C00465245473A2000200052535367
:101B0C00493A2020202020202000202020300020B6
:101B1C0020202000504F52203A202020202000442A
:101B2C004556203A2020202020202000536572505A
:101B3C00616E5243000401000000000000005F00D1
:101B4C00000007000700147F147F14242A7F2A1238
:101B5C002313086462364955225000050300000027
:101B6C001C2241000041221C0014083E08140808E5
:101B7C003E080800503000000808080808006060A3
:101B8C00000020100804023E5149453E00427F40AF
:101B9C000042615149462141454B311814127F10C6
:101BAC0027454545393C4A494930017109050336F9
:101BBC0049494936064949291E0036360000005667
:101BCC00360000081422410014141414140041228D
:101BDC0014080201510906324979413E7E11111156
:101BEC007E7F494949363E414141227F4141221C79
:101BFC007F494949417F090909013E4149497A7F99
:101C0C000808087F00417F41002040413F017F08C8
:101C1C001422417F404040407F020C027F7F040829
:101C2C00107F3E4141413E7F090909063E41512149
:101C3C005E7F09192946464949493101017F010155
:101C4C003F4040403F1F2040201F3F4038403F63F3
:101C5C001408146307087008076151494543007F55
:101C6C0041410002040810200041417F00040201A0
:101C7C0002044040404040000102040020545454EF
:101C8C00787F484444383844444420384444487F9E
:101C9C003854545418087E0901020C5252523E7F9B
:101CAC000804047800447D40002040443D007F102F
:101CBC0028440000417F40007C041804787C080410
:101CCC00047838444444387C141414080814141848
:101CDC007C7C080404084854545420043F4440209D
:101CEC003C4040207C1C2040201C3C4030403C446C
:101CFC00281028440C5050503C4464544C44000868
:101D0C0036410000007F0000004136080010080832
:101D1C00100878464146785B6265686A6C6E707232
:101D2C007476787C80848800000000C40893084C8A
:081D3C000855086A087B080045
:00000001FF
